:020000040000FA
:0600000000EF3EF01200CB
:0100060000F9
:107C000013EE00F023EE00F0F86A8BEC3FF0C00EAC
:107C1000F66E7F0EF76EE8680900F5180BE1E8686C
:107C20000900F51807E1E8680900F51803E1E868BC
:107C30000900F51807E1936A0F0EC16EF80E8A6EFF
:0A7C4000FFD702D0E0EF3FF0120082
:067C4A000100060000002D
:087C5000120000000100000019
:087C5800ABA8AB88ABA206D07B
:107C6000AB98AECF01F0AECF01F0AB889EAAFED7A5
:107C7000AE501200AB8E948E040EAC6E900EAB6EB6
:107C8000090EB86E0001026B200E036FB8A007D07A
:107C90000207000E035B02510311F8E1000CDCDF68
:107CA000110EAF5C04E1B05002E1100EAF6ED4DFF4
:107CB000010C000104690569066B020E0025065DD2
:107CC00020E20451051B0551041B0451051B0651FC
:107CD000EA6A000FE96E010EEA22EF50051B053932
:107CE0000F0B051B0539F00B041B0551E840E8405C
:107CF000E8401F0B041B0551200DF350051B062BFC
:107D0000DCD7045102E1055101E0000C010C000137
:107D1000076BA2DF0F08FDE19FDF0F08FAE100010A
:107D2000006B9ADF0001086F040A0BE00B0A06E003
:107D30000A0A15E191DF0001086F11D0180E8A6E52
:107D4000FFD7075102E1005102E0020E005F00512F
:107D500019E0AFDF000916E1780E8A6EFFD70751F0
:107D600003E0380E8A6EFFD70051002BEA6A000F3D
:107D7000E96E010EEA2208C0EFFF0051D2E1010EC8
:107D8000076FCFD7120000011251010B08E1000E5E
:107D9000F65C7C0EF758000EF85801E3A6948A8230
:107DA000550EA76EAA0EA76EA6828A921200000137
:107DB000010E0E6F010E0F6F00050D6F0D5122E0C9
:107DC000CDD8EE52EF50C00BF66EC8D8EF50F76E1C
:107DD000C5D8020EE926000EEA22EF50EF06000990
:107DE00009E0940EA66ECFDF400EF626000EF722B5
:107DF000F822EED70001030E0E27000E0F23030E0C
:107E00000D5FDCD71200D9CFE6FFE1CFD9FF84E9BF
:107E10000001200E106F0A0000500006000912E059
:107E200001EBE9FF02EBEAFF012A000E0222EF500C
:107E3000F56E0F000001100704E10001200E106F25
:107E4000A2DFEAD7200E0001105D01E09CDF41E9CE
:107E5000E7CFD9FF1200E00E01010215F66E01C155
:107E6000F7FFF650F710F8100FE103C109F004C155
:107E70000AF005C10BF006C10CF0036BEF0E046FA6
:107E80003E0E056FF00E066F840EA66E030E000107
:107E9000005DE66E030EE66E010EE66EB4DF43E9AA
:107EA000120000011281C00EF66E7F0EF76E940E66
:107EB000A66E69DF0A0009C0F5FF0F000AC0F5FFD2
:107EC0000F000BC0F5FF0F000CC0F5FF0F00840E74
:107ED000A66E59DFF66AF76A300EF86EC40EA66E0B
:107EE0000001010E116F000100510001115D0FE250
:107EF00000011151EA6A000FE96E010EEA22EF500B
:107F0000F56E0C0040DF09000001112BECD70001D9
:107F10001291FF001200720ED36EF29ED1908A6A07
:107F2000A9DE000901E11200936A0F0EC16E010E75
:107F30008A6E92DE5508FDE0EADE01010051130A67
:107F400008E0010A04E0030A06E131DFF5D783DF28
:107F5000F3D7A7DFF1D7080E8A6EFFD70EC0E9FF6F
:067F60000FC0EAFF120051
:0A7F6600000EF36E00EE00F0080EAE
:107F700001D81200EA6002D0EE6AFCD7F350E96043
:067F80001200EE6AFCD7BE
:020000040030CA
:1000000000081F1E0083C100FFFFFFFFFFFFFFFF6F
:00000001FF
